{
  "abi": [
    {
      "inputs": [],
      "stateMutability": "nonpayable",
      "type": "constructor"
    },
    {
      "anonymous": false,
      "inputs": [
        {
          "indexed": true,
          "internalType": "address",
          "name": "user",
          "type": "address"
        },
        {
          "indexed": false,
          "internalType": "uint256",
          "name": "amount",
          "type": "uint256"
        },
        {
          "indexed": false,
          "internalType": "string",
          "name": "messege",
          "type": "string"
        }
      ],
      "name": "DW",
      "type": "event"
    },
    {
      "anonymous": false,
      "inputs": [
        {
          "indexed": true,
          "internalType": "address",
          "name": "from",
          "type": "address"
        },
        {
          "indexed": true,
          "internalType": "address",
          "name": "to",
          "type": "address"
        },
        {
          "indexed": false,
          "internalType": "uint256",
          "name": "amount",
          "type": "uint256"
        }
      ],
      "name": "Transfer",
      "type": "event"
    },
    {
      "inputs": [],
      "name": "deposit",
      "outputs": [],
      "stateMutability": "payable",
      "type": "function"
    },
    {
      "inputs": [],
      "name": "getAccountBalance",
      "outputs": [
        {
          "internalType": "uint256",
          "name": "",
          "type": "uint256"
        }
      ],
      "stateMutability": "view",
      "type": "function"
    },
    {
      "inputs": [],
      "name": "getContractBalance",
      "outputs": [
        {
          "internalType": "uint256",
          "name": "",
          "type": "uint256"
        }
      ],
      "stateMutability": "view",
      "type": "function"
    },
    {
      "inputs": [],
      "name": "getOwner",
      "outputs": [
        {
          "internalType": "address",
          "name": "",
          "type": "address"
        }
      ],
      "stateMutability": "view",
      "type": "function"
    },
    {
      "inputs": [
        {
          "internalType": "address payable",
          "name": "_to",
          "type": "address"
        },
        {
          "internalType": "uint256",
          "name": "_amount",
          "type": "uint256"
        }
      ],
      "name": "transferTo",
      "outputs": [],
      "stateMutability": "nonpayable",
      "type": "function"
    },
    {
      "inputs": [
        {
          "internalType": "uint256",
          "name": "amount",
          "type": "uint256"
        }
      ],
      "name": "withdraw",
      "outputs": [],
      "stateMutability": "nonpayable",
      "type": "function"
    }
  ],
  "bytecode": {
    "object": "0x608060405234801561001057600080fd5b50600080546001600160a01b0319163317905561055e806100326000396000f3fe6080604052600436106100555760003560e01c80632ccb1b301461005a5780632e1a7d4d1461007c5780636896fabf1461009c5780636f9fb98a146100cd578063893d20e8146100e2578063d0e30db01461010a575b600080fd5b34801561006657600080fd5b5061007a610075366004610453565b610112565b005b34801561008857600080fd5b5061007a61009736600461048b565b610228565b3480156100a857600080fd5b50336000908152600160205260409020545b6040519081526020015b60405180910390f35b3480156100d957600080fd5b506100ba610358565b3480156100ee57600080fd5b506000546040516001600160a01b0390911681526020016100c4565b61007a6103b0565b806000811161013c5760405162461bcd60e51b8152600401610133906104a4565b60405180910390fd5b336000908152600160205260409020548211156101925760405162461bcd60e51b8152602060048201526014602482015273496e73756666696369656e742062616c616e636560601b6044820152606401610133565b33600090815260016020526040812080548492906101b19084906104fc565b90915550506001600160a01b038316600090815260016020526040812080548492906101de908490610515565b90915550506040518281526001600160a01b0384169033907fddf252ad1be2c89b69c2b068fc378daa952ba7f163c4a11628f55a4df523b3ef9060200160405180910390a3505050565b80600081116102495760405162461bcd60e51b8152600401610133906104a4565b3360009081526001602052604090205482111561029f5760405162461bcd60e51b8152602060048201526014602482015273496e73756666696369656e742062616c616e636560601b6044820152606401610133565b33600090815260016020526040812080548492906102be9084906104fc565b9091555050604051339083156108fc029084906000818181858888f193505050501580156102f0573d6000803e3d6000fd5b50336001600160a01b03167f0807b9651046fb69006a820e7de346e16cee3f018de1a4856475ad2e13c2ad248360405161034c91815260406020820181905260089082015267576974686472617760c01b606082015260800190565b60405180910390a25050565b600080546001600160a01b031633146103ab5760405162461bcd60e51b815260206004820152601560248201527413db9b1e481bdddb995c881a5cc8185b1b1bddd959605a1b6044820152606401610133565b504790565b34600081116103d15760405162461bcd60e51b8152600401610133906104a4565b33600090815260016020526040812080543492906103f0908490610515565b909155505060405133907f0807b9651046fb69006a820e7de346e16cee3f018de1a4856475ad2e13c2ad2490610448903481526040602082018190526007908201526611195c1bdcda5d60ca1b606082015260800190565b60405180910390a250565b6000806040838503121561046657600080fd5b82356001600160a01b038116811461047d57600080fd5b946020939093013593505050565b60006020828403121561049d57600080fd5b5035919050565b60208082526022908201527f416d6f756e742073686f756c642062652067726561746572207468616e207a65604082015261726f60f01b606082015260800190565b634e487b7160e01b600052601160045260246000fd5b8181038181111561050f5761050f6104e6565b92915050565b8082018082111561050f5761050f6104e656fea2646970667358221220d4d64a656b92ebc431ba1c094ae08ebec6b0095485fa5cb92752eeea34f87eee64736f6c63430008140033",
    "linkReferences": {}
  },
  "methodIdentifiers": {
    "deposit()": "d0e30db0",
    "getAccountBalance()": "6896fabf",
    "getContractBalance()": "6f9fb98a",
    "getOwner()": "893d20e8",
    "transferTo(address,uint256)": "2ccb1b30",
    "withdraw(uint256)": "2e1a7d4d"
  },
  "id": 13
}